{
  "contractName": "MultiSend",
  "abi": [
    {
      "constant": true,
      "inputs": [],
      "name": "escapeHatchCaller",
      "outputs": [
        {
          "name": "",
          "type": "address"
        }
      ],
      "payable": false,
      "stateMutability": "view",
      "type": "function"
    },
    {
      "constant": false,
      "inputs": [
        {
          "name": "_newOwner",
          "type": "address"
        }
      ],
      "name": "changeOwnership",
      "outputs": [],
      "payable": false,
      "stateMutability": "nonpayable",
      "type": "function"
    },
    {
      "constant": false,
      "inputs": [
        {
          "name": "_dac",
          "type": "address"
        }
      ],
      "name": "removeOwnership",
      "outputs": [],
      "payable": false,
      "stateMutability": "nonpayable",
      "type": "function"
    },
    {
      "constant": false,
      "inputs": [
        {
          "name": "_newOwnerCandidate",
          "type": "address"
        }
      ],
      "name": "proposeOwnership",
      "outputs": [],
      "payable": false,
      "stateMutability": "nonpayable",
      "type": "function"
    },
    {
      "constant": false,
      "inputs": [],
      "name": "acceptOwnership",
      "outputs": [],
      "payable": false,
      "stateMutability": "nonpayable",
      "type": "function"
    },
    {
      "constant": true,
      "inputs": [
        {
          "name": "_token",
          "type": "address"
        }
      ],
      "name": "isTokenEscapable",
      "outputs": [
        {
          "name": "",
          "type": "bool"
        }
      ],
      "payable": false,
      "stateMutability": "view",
      "type": "function"
    },
    {
      "constant": true,
      "inputs": [],
      "name": "owner",
      "outputs": [
        {
          "name": "",
          "type": "address"
        }
      ],
      "payable": false,
      "stateMutability": "view",
      "type": "function"
    },
    {
      "constant": false,
      "inputs": [
        {
          "name": "_token",
          "type": "address"
        }
      ],
      "name": "escapeHatch",
      "outputs": [],
      "payable": false,
      "stateMutability": "nonpayable",
      "type": "function"
    },
    {
      "constant": true,
      "inputs": [],
      "name": "newOwnerCandidate",
      "outputs": [
        {
          "name": "",
          "type": "address"
        }
      ],
      "payable": false,
      "stateMutability": "view",
      "type": "function"
    },
    {
      "constant": false,
      "inputs": [
        {
          "name": "_newEscapeHatchCaller",
          "type": "address"
        }
      ],
      "name": "changeHatchEscapeCaller",
      "outputs": [],
      "payable": false,
      "stateMutability": "nonpayable",
      "type": "function"
    },
    {
      "constant": true,
      "inputs": [],
      "name": "escapeHatchDestination",
      "outputs": [
        {
          "name": "",
          "type": "address"
        }
      ],
      "payable": false,
      "stateMutability": "view",
      "type": "function"
    },
    {
      "inputs": [],
      "payable": false,
      "stateMutability": "nonpayable",
      "type": "constructor"
    },
    {
      "payable": true,
      "stateMutability": "payable",
      "type": "fallback"
    },
    {
      "anonymous": false,
      "inputs": [
        {
          "indexed": true,
          "name": "_from",
          "type": "address"
        },
        {
          "indexed": true,
          "name": "_value",
          "type": "uint256"
        },
        {
          "indexed": false,
          "name": "_to",
          "type": "address"
        },
        {
          "indexed": false,
          "name": "_amount",
          "type": "uint256"
        }
      ],
      "name": "MultiTransfer",
      "type": "event"
    },
    {
      "anonymous": false,
      "inputs": [
        {
          "indexed": true,
          "name": "_from",
          "type": "address"
        },
        {
          "indexed": true,
          "name": "_value",
          "type": "uint256"
        },
        {
          "indexed": false,
          "name": "_to",
          "type": "address"
        },
        {
          "indexed": false,
          "name": "_amount",
          "type": "uint256"
        }
      ],
      "name": "MultiCall",
      "type": "event"
    },
    {
      "anonymous": false,
      "inputs": [
        {
          "indexed": true,
          "name": "_from",
          "type": "address"
        },
        {
          "indexed": true,
          "name": "_value",
          "type": "uint256"
        },
        {
          "indexed": false,
          "name": "_to",
          "type": "address"
        },
        {
          "indexed": false,
          "name": "_amount",
          "type": "uint256"
        },
        {
          "indexed": false,
          "name": "_token",
          "type": "address"
        }
      ],
      "name": "MultiERC20Transfer",
      "type": "event"
    },
    {
      "anonymous": false,
      "inputs": [
        {
          "indexed": false,
          "name": "token",
          "type": "address"
        }
      ],
      "name": "EscapeHatchBlackistedToken",
      "type": "event"
    },
    {
      "anonymous": false,
      "inputs": [
        {
          "indexed": false,
          "name": "token",
          "type": "address"
        },
        {
          "indexed": false,
          "name": "amount",
          "type": "uint256"
        }
      ],
      "name": "EscapeHatchCalled",
      "type": "event"
    },
    {
      "anonymous": false,
      "inputs": [
        {
          "indexed": true,
          "name": "by",
          "type": "address"
        },
        {
          "indexed": true,
          "name": "to",
          "type": "address"
        }
      ],
      "name": "OwnershipRequested",
      "type": "event"
    },
    {
      "anonymous": false,
      "inputs": [
        {
          "indexed": true,
          "name": "from",
          "type": "address"
        },
        {
          "indexed": true,
          "name": "to",
          "type": "address"
        }
      ],
      "name": "OwnershipTransferred",
      "type": "event"
    },
    {
      "anonymous": false,
      "inputs": [],
      "name": "OwnershipRemoved",
      "type": "event"
    },
    {
      "constant": false,
      "inputs": [
        {
          "name": "_addressesAndAmounts",
          "type": "bytes32[]"
        }
      ],
      "name": "multiTransferTightlyPacked",
      "outputs": [
        {
          "name": "",
          "type": "bool"
        }
      ],
      "payable": true,
      "stateMutability": "payable",
      "type": "function"
    },
    {
      "constant": false,
      "inputs": [
        {
          "name": "_addresses",
          "type": "address[]"
        },
        {
          "name": "_amounts",
          "type": "uint256[]"
        }
      ],
      "name": "multiTransfer",
      "outputs": [
        {
          "name": "",
          "type": "bool"
        }
      ],
      "payable": true,
      "stateMutability": "payable",
      "type": "function"
    },
    {
      "constant": false,
      "inputs": [
        {
          "name": "_addressesAndAmounts",
          "type": "bytes32[]"
        }
      ],
      "name": "multiCallTightlyPacked",
      "outputs": [
        {
          "name": "",
          "type": "bool"
        }
      ],
      "payable": true,
      "stateMutability": "payable",
      "type": "function"
    },
    {
      "constant": false,
      "inputs": [
        {
          "name": "_addresses",
          "type": "address[]"
        },
        {
          "name": "_amounts",
          "type": "uint256[]"
        }
      ],
      "name": "multiCall",
      "outputs": [
        {
          "name": "",
          "type": "bool"
        }
      ],
      "payable": true,
      "stateMutability": "payable",
      "type": "function"
    },
    {
      "constant": false,
      "inputs": [
        {
          "name": "_token",
          "type": "address"
        },
        {
          "name": "_addressesAndAmounts",
          "type": "bytes32[]"
        }
      ],
      "name": "multiERC20TransferTightlyPacked",
      "outputs": [],
      "payable": false,
      "stateMutability": "nonpayable",
      "type": "function"
    },
    {
      "constant": false,
      "inputs": [
        {
          "name": "_token",
          "type": "address"
        },
        {
          "name": "_addresses",
          "type": "address[]"
        },
        {
          "name": "_amounts",
          "type": "uint256[]"
        }
      ],
      "name": "multiERC20Transfer",
      "outputs": [],
      "payable": false,
      "stateMutability": "nonpayable",
      "type": "function"
    }
  ],
  "bytecode": "0x608060405273839395e20bbb182fa440d08f850e6c7a8f6f0780600560006101000a81548173ffffffffffffffffffffffffffffffffffffffff021916908373ffffffffffffffffffffffffffffffffffffffff160217905550738ff920020c8ad673661c8117f2855c384758c572600660006101000a81548173ffffffffffffffffffffffffffffffffffffffff021916908373ffffffffffffffffffffffffffffffffffffffff1602179055503480156100ba57600080fd5b50600560009054906101000a900473ffffffffffffffffffffffffffffffffffffffff16600660009054906101000a900473ffffffffffffffffffffffffffffffffffffffff16336000806101000a81548173ffffffffffffffffffffffffffffffffffffffff021916908373ffffffffffffffffffffffffffffffffffffffff16021790555081600260006101000a81548173ffffffffffffffffffffffffffffffffffffffff021916908373ffffffffffffffffffffffffffffffffffffffff16021790555080600360006101000a81548173ffffffffffffffffffffffffffffffffffffffff021916908373ffffffffffffffffffffffffffffffffffffffff1602179055505050611dc1806101d46000396000f3006080604052600436106100f1576000357c0100000000000000000000000000000000000000000000000000000000900463ffffffff1680631476e40f146100f65780631e89d545146101aa5780631f6eb6e71461025e5780632a17e397146102b55780632af4c31e1461032657806335a2172814610369578063666a342714610432578063710bf3221461047557806379ba5097146104b8578063892db057146104cf5780638da5cb5b1461052a578063a142d60814610581578063ac66777f146105c4578063d091b55014610635578063d836fbe81461068c578063f5b61230146106cf578063f8f1d92714610726575b600080fd5b61019060048036038101908080359060200190820180359060200190808060200260200160405190810160405280939291908181526020018383602002808284378201915050505050509192919290803590602001908201803590602001908080602002602001604051908101604052809392919081815260200183836020028082843782019150505050505091929192905050506107ac565b604051808215151515815260200191505060405180910390f35b6102446004803603810190808035906020019082018035906020019080806020026020016040519081016040528093929190818152602001838360200280828437820191505050505050919291929080359060200190820180359060200190808060200260200160405190810160405280939291908181526020018383602002808284378201915050505050509192919290505050610902565b604051808215151515815260200191505060405180910390f35b34801561026a57600080fd5b50610273610a58565b604051808273ffffffffffffffffffffffffffffffffffffffff1673ffffffffffffffffffffffffffffffffffffffff16815260200191505060405180910390f35b61030c60048036038101908080359060200190820180359060200190808060200260200160405190810160405280939291908181526020018383602002808284378201915050505050509192919290505050610a7e565b604051808215151515815260200191505060405180910390f35b34801561033257600080fd5b50610367600480360381019080803573ffffffffffffffffffffffffffffffffffffffff169060200190929190505050610bd2565b005b34801561037557600080fd5b50610430600480360381019080803573ffffffffffffffffffffffffffffffffffffffff1690602001909291908035906020019082018035906020019080806020026020016040519081016040528093929190818152602001838360200280828437820191505050505050919291929080359060200190820180359060200190808060200260200160405190810160405280939291908181526020018383602002808284378201915050505050509192919290505050610d7a565b005b34801561043e57600080fd5b50610473600480360381019080803573ffffffffffffffffffffffffffffffffffffffff169060200190929190505050610eba565b005b34801561048157600080fd5b506104b6600480360381019080803573ffffffffffffffffffffffffffffffffffffffff169060200190929190505050610fed565b005b3480156104c457600080fd5b506104cd611108565b005b3480156104db57600080fd5b50610510600480360381019080803573ffffffffffffffffffffffffffffffffffffffff1690602001909291905050506112ac565b604051808215151515815260200191505060405180910390f35b34801561053657600080fd5b5061053f611303565b604051808273ffffffffffffffffffffffffffffffffffffffff1673ffffffffffffffffffffffffffffffffffffffff16815260200191505060405180910390f35b34801561058d57600080fd5b506105c2600480360381019080803573ffffffffffffffffffffffffffffffffffffffff169060200190929190505050611328565b005b61061b600480360381019080803590602001908201803590602001908080602002602001604051908101604052809392919081815260200183836020028082843782019150505050505091929192905050506117a6565b604051808215151515815260200191505060405180910390f35b34801561064157600080fd5b5061064a6118fa565b604051808273ffffffffffffffffffffffffffffffffffffffff1673ffffffffffffffffffffffffffffffffffffffff16815260200191505060405180910390f35b34801561069857600080fd5b506106cd600480360381019080803573ffffffffffffffffffffffffffffffffffffffff169060200190929190505050611920565b005b3480156106db57600080fd5b506106e4611a17565b604051808273ffffffffffffffffffffffffffffffffffffffff1673ffffffffffffffffffffffffffffffffffffffff16815260200191505060405180910390f35b34801561073257600080fd5b506107aa600480360381019080803573ffffffffffffffffffffffffffffffffffffffff16906020019092919080359060200190820180359060200190808060200260200160405190810160405280939291908181526020018383602002808284378201915050505050509192919290505050611a3d565b005b60008060003073ffffffffffffffffffffffffffffffffffffffff16319150600090505b84518110156108cf5761081185828151811015156107ea57fe5b90602001906020020151858381518110151561080257fe5b90602001906020020151611b7b565b343373ffffffffffffffffffffffffffffffffffffffff167fa5c03fd81f783c38e4b274cd539e517bacfc824ee513ec4dad385269fa9684d7878481518110151561085857fe5b90602001906020020151878581518110151561087057fe5b90602001906020020151604051808373ffffffffffffffffffffffffffffffffffffffff1673ffffffffffffffffffffffffffffffffffffffff1681526020018281526020019250505060405180910390a380806001019150506107d0565b3073ffffffffffffffffffffffffffffffffffffffff16313483031415156108f657600080fd5b60019250505092915050565b60008060003073ffffffffffffffffffffffffffffffffffffffff16319150600090505b8451811015610a2557610967858281518110151561094057fe5b90602001906020020151858381518110151561095857fe5b90602001906020020151611bdc565b343373ffffffffffffffffffffffffffffffffffffffff167f319e0008dcdeba1f31169497fb0f35d31b2b2f481c714d1f50640e86ac6c3bb087848151811015156109ae57fe5b9060200190602002015187858151811015156109c657fe5b90602001906020020151604051808373ffffffffffffffffffffffffffffffffffffffff1673ffffffffffffffffffffffffffffffffffffffff1681526020018281526020019250505060405180910390a38080600101915050610926565b3073ffffffffffffffffffffffffffffffffffffffff1631348303141515610a4c57600080fd5b60019250505092915050565b600260009054906101000a900473ffffffffffffffffffffffffffffffffffffffff1681565b60008060008060003073ffffffffffffffffffffffffffffffffffffffff16319350600092505b8551831015610b9e5760608684815181101515610abe57fe5b90602001906020020151600019169060020a90046001900491508583815181101515610ae657fe5b90602001906020020151600190046bffffffffffffffffffffffff169050610b0e8282611bdc565b343373ffffffffffffffffffffffffffffffffffffffff167f319e0008dcdeba1f31169497fb0f35d31b2b2f481c714d1f50640e86ac6c3bb08484604051808373ffffffffffffffffffffffffffffffffffffffff1673ffffffffffffffffffffffffffffffffffffffff1681526020018281526020019250505060405180910390a38280600101935050610aa5565b3073ffffffffffffffffffffffffffffffffffffffff1631348503141515610bc557600080fd5b6001945050505050919050565b60008060009054906101000a900473ffffffffffffffffffffffffffffffffffffffff1673ffffffffffffffffffffffffffffffffffffffff163373ffffffffffffffffffffffffffffffffffffffff16141515610c2f57600080fd5b60008273ffffffffffffffffffffffffffffffffffffffff1614151515610c5557600080fd5b6000809054906101000a900473ffffffffffffffffffffffffffffffffffffffff169050816000806101000a81548173ffffffffffffffffffffffffffffffffffffffff021916908373ffffffffffffffffffffffffffffffffffffffff1602179055506000600160006101000a81548173ffffffffffffffffffffffffffffffffffffffff021916908373ffffffffffffffffffffffffffffffffffffffff1602179055506000809054906101000a900473ffffffffffffffffffffffffffffffffffffffff1673ffffffffffffffffffffffffffffffffffffffff168173ffffffffffffffffffffffffffffffffffffffff167f8be0079c531659141344cd1fd0a4f28419497f9722a3daafe3b4186f6b6457e060405160405180910390a35050565b60008090505b8251811015610eb457610dc2848483815181101515610d9b57fe5b906020019060200201518484815181101515610db357fe5b90602001906020020151611c4d565b343373ffffffffffffffffffffffffffffffffffffffff167ffc01e439ca3c7015e18b8adea39e270034ba32f41fc788a4ff659842f0f37a938584815181101515610e0957fe5b906020019060200201518585815181101515610e2157fe5b9060200190602002015188604051808473ffffffffffffffffffffffffffffffffffffffff1673ffffffffffffffffffffffffffffffffffffffff1681526020018381526020018273ffffffffffffffffffffffffffffffffffffffff1673ffffffffffffffffffffffffffffffffffffffff168152602001935050505060405180910390a38080600101915050610d80565b50505050565b6000809054906101000a900473ffffffffffffffffffffffffffffffffffffffff1673ffffffffffffffffffffffffffffffffffffffff163373ffffffffffffffffffffffffffffffffffffffff16141515610f1557600080fd5b610dac8173ffffffffffffffffffffffffffffffffffffffff16141515610f3b57600080fd5b60008060006101000a81548173ffffffffffffffffffffffffffffffffffffffff021916908373ffffffffffffffffffffffffffffffffffffffff1602179055506000600160006101000a81548173ffffffffffffffffffffffffffffffffffffffff021916908373ffffffffffffffffffffffffffffffffffffffff1602179055507f94e8b32e01b9eedfddd778ffbd051a7718cdc14781702884561162dca6f74dbb60405160405180910390a150565b6000809054906101000a900473ffffffffffffffffffffffffffffffffffffffff1673ffffffffffffffffffffffffffffffffffffffff163373ffffffffffffffffffffffffffffffffffffffff1614151561104857600080fd5b80600160006101000a81548173ffffffffffffffffffffffffffffffffffffffff021916908373ffffffffffffffffffffffffffffffffffffffff160217905550600160009054906101000a900473ffffffffffffffffffffffffffffffffffffffff1673ffffffffffffffffffffffffffffffffffffffff163373ffffffffffffffffffffffffffffffffffffffff167f13a4b3bc0d5234dd3d87c9f1557d8faefa37986da62c36ba49309e2fb2c9aec460405160405180910390a350565b6000600160009054906101000a900473ffffffffffffffffffffffffffffffffffffffff1673ffffffffffffffffffffffffffffffffffffffff163373ffffffffffffffffffffffffffffffffffffffff1614151561116657600080fd5b6000809054906101000a900473ffffffffffffffffffffffffffffffffffffffff169050600160009054906101000a900473ffffffffffffffffffffffffffffffffffffffff166000806101000a81548173ffffffffffffffffffffffffffffffffffffffff021916908373ffffffffffffffffffffffffffffffffffffffff1602179055506000600160006101000a81548173ffffffffffffffffffffffffffffffffffffffff021916908373ffffffffffffffffffffffffffffffffffffffff1602179055506000809054906101000a900473ffffffffffffffffffffffffffffffffffffffff1673ffffffffffffffffffffffffffffffffffffffff168173ffffffffffffffffffffffffffffffffffffffff167f8be0079c531659141344cd1fd0a4f28419497f9722a3daafe3b4186f6b6457e060405160405180910390a350565b6000600460008373ffffffffffffffffffffffffffffffffffffffff1673ffffffffffffffffffffffffffffffffffffffff16815260200190815260200160002060009054906101000a900460ff16159050919050565b6000809054906101000a900473ffffffffffffffffffffffffffffffffffffffff1681565b600080600260009054906101000a900473ffffffffffffffffffffffffffffffffffffffff1673ffffffffffffffffffffffffffffffffffffffff163373ffffffffffffffffffffffffffffffffffffffff1614806113d357506000809054906101000a900473ffffffffffffffffffffffffffffffffffffffff1673ffffffffffffffffffffffffffffffffffffffff163373ffffffffffffffffffffffffffffffffffffffff16145b15156113de57600080fd5b60001515600460008573ffffffffffffffffffffffffffffffffffffffff1673ffffffffffffffffffffffffffffffffffffffff16815260200190815260200160002060009054906101000a900460ff16151514151561143d57600080fd5b60008373ffffffffffffffffffffffffffffffffffffffff16141561154f573073ffffffffffffffffffffffffffffffffffffffff16319150600360009054906101000a900473ffffffffffffffffffffffffffffffffffffffff1673ffffffffffffffffffffffffffffffffffffffff166108fc839081150290604051600060405180830381858888f193505050501580156114de573d6000803e3d6000fd5b507fa50dde912fa22ea0d215a0236093ac45b4d55d6ef0c604c319f900029c5d10f28383604051808373ffffffffffffffffffffffffffffffffffffffff1673ffffffffffffffffffffffffffffffffffffffff1681526020018281526020019250505060405180910390a16117a1565b8290508073ffffffffffffffffffffffffffffffffffffffff166370a08231306040518263ffffffff167c0100000000000000000000000000000000000000000000000000000000028152600401808273ffffffffffffffffffffffffffffffffffffffff1673ffffffffffffffffffffffffffffffffffffffff168152602001915050602060405180830381600087803b1580156115ed57600080fd5b505af1158015611601573d6000803e3d6000fd5b505050506040513d602081101561161757600080fd5b810190808051906020019092919050505091508073ffffffffffffffffffffffffffffffffffffffff1663a9059cbb600360009054906101000a900473ffffffffffffffffffffffffffffffffffffffff16846040518363ffffffff167c0100000000000000000000000000000000000000000000000000000000028152600401808373ffffffffffffffffffffffffffffffffffffffff1673ffffffffffffffffffffffffffffffffffffffff16815260200182815260200192505050602060405180830381600087803b1580156116ef57600080fd5b505af1158015611703573d6000803e3d6000fd5b505050506040513d602081101561171957600080fd5b8101908080519060200190929190505050151561173557600080fd5b7fa50dde912fa22ea0d215a0236093ac45b4d55d6ef0c604c319f900029c5d10f28383604051808373ffffffffffffffffffffffffffffffffffffffff1673ffffffffffffffffffffffffffffffffffffffff1681526020018281526020019250505060405180910390a15b505050565b60008060008060003073ffffffffffffffffffffffffffffffffffffffff16319350600092505b85518310156118c657606086848151811015156117e657fe5b90602001906020020151600019169060020a9004600190049150858381518110151561180e57fe5b90602001906020020151600190046bffffffffffffffffffffffff1690506118368282611b7b565b343373ffffffffffffffffffffffffffffffffffffffff167fa5c03fd81f783c38e4b274cd539e517bacfc824ee513ec4dad385269fa9684d78484604051808373ffffffffffffffffffffffffffffffffffffffff1673ffffffffffffffffffffffffffffffffffffffff1681526020018281526020019250505060405180910390a382806001019350506117cd565b3073ffffffffffffffffffffffffffffffffffffffff16313485031415156118ed57600080fd5b6001945050505050919050565b600160009054906101000a900473ffffffffffffffffffffffffffffffffffffffff1681565b600260009054906101000a900473ffffffffffffffffffffffffffffffffffffffff1673ffffffffffffffffffffffffffffffffffffffff163373ffffffffffffffffffffffffffffffffffffffff1614806119c857506000809054906101000a900473ffffffffffffffffffffffffffffffffffffffff1673ffffffffffffffffffffffffffffffffffffffff163373ffffffffffffffffffffffffffffffffffffffff16145b15156119d357600080fd5b80600260006101000a81548173ffffffffffffffffffffffffffffffffffffffff021916908373ffffffffffffffffffffffffffffffffffffffff16021790555050565b600360009054906101000a900473ffffffffffffffffffffffffffffffffffffffff1681565b60008060008092505b8351831015611b745760608484815181101515611a5f57fe5b90602001906020020151600019169060020a90046001900491508383815181101515611a8757fe5b90602001906020020151600190046bffffffffffffffffffffffff169050611ab0858383611c4d565b343373ffffffffffffffffffffffffffffffffffffffff167ffc01e439ca3c7015e18b8adea39e270034ba32f41fc788a4ff659842f0f37a93848489604051808473ffffffffffffffffffffffffffffffffffffffff1673ffffffffffffffffffffffffffffffffffffffff1681526020018381526020018273ffffffffffffffffffffffffffffffffffffffff1673ffffffffffffffffffffffffffffffffffffffff168152602001935050505060405180910390a38280600101935050611a46565b5050505050565b60008273ffffffffffffffffffffffffffffffffffffffff1614151515611ba157600080fd5b8173ffffffffffffffffffffffffffffffffffffffff168160405160006040518083038185875af1925050501515611bd857600080fd5b5050565b60008273ffffffffffffffffffffffffffffffffffffffff1614151515611c0257600080fd5b8173ffffffffffffffffffffffffffffffffffffffff166108fc829081150290604051600060405180830381858888f19350505050158015611c48573d6000803e3d6000fd5b505050565b60008273ffffffffffffffffffffffffffffffffffffffff1614151515611c7357600080fd5b8273ffffffffffffffffffffffffffffffffffffffff166323b872dd3384846040518463ffffffff167c0100000000000000000000000000000000000000000000000000000000028152600401808473ffffffffffffffffffffffffffffffffffffffff1673ffffffffffffffffffffffffffffffffffffffff1681526020018373ffffffffffffffffffffffffffffffffffffffff1673ffffffffffffffffffffffffffffffffffffffff1681526020018281526020019350505050602060405180830381600087803b158015611d4a57600080fd5b505af1158015611d5e573d6000803e3d6000fd5b505050506040513d6020811015611d7457600080fd5b81019080805190602001909291905050501515611d9057600080fd5b5050505600a165627a7a72305820f6bc04a9a2e04687e5662d38fc740cda72d467e2a674bef6a7f597c52717ad7d0029",
  "source": "/**\n *Submitted for verification at Etherscan.io on 2018-01-17\n*/\n\npragma solidity ^0.4.19;\n\n/*\n    Copyright 2016, Jordi Baylina\n    Contributor: Adri Massanet <adria@codecontext.io>\n\n    This program is free software: you can redistribute it and/or modify\n    it under the terms of the GNU General Public License as published by\n    the Free Software Foundation, either version 3 of the License, or\n    (at your option) any later version.\n\n    This program is distributed in the hope that it will be useful,\n    but WITHOUT ANY WARRANTY; without even the implied warranty of\n    MERCHANTABILITY or FITNESS FOR A PARTICULAR PURPOSE.  See the\n    GNU General Public License for more details.\n\n    You should have received a copy of the GNU General Public License\n    along with this program.  If not, see <http://www.gnu.org/licenses/>.\n\n\n    This is just some extra garbage to check about comments\n*/\n/// Add an extra comment here see if I care\n/// @title Owned\n/// @author Adri Massanet <adria@codecontext.io>\n/// @notice The Owned contract has an owner address, and provides basic\n///  authorization control functions, this simplifies & the implementation of\n///  user permissions; this contract has three work flows for a change in\n///  ownership, the first requires the new owner to validate that they have the\n///  ability to accept ownership, the second allows the ownership to be\n///  directly transfered without requiring acceptance, and the third allows for\n///  the ownership to be removed to allow for decentralization\ncontract Owned {\n\n    address public owner;\n    address public newOwnerCandidate;\n\n    event OwnershipRequested(address indexed by, address indexed to);\n    event OwnershipTransferred(address indexed from, address indexed to);\n    event OwnershipRemoved();\n\n    /// @dev The constructor sets the `msg.sender` as the`owner` of the contract\n    function Owned() public {\n        owner = msg.sender;\n    }\n\n    /// @dev `owner` is the only address that can call a function with this\n    /// modifier\n    modifier onlyOwner() {\n        require (msg.sender == owner);\n        _;\n    }\n\n    /// @dev In this 1st option for ownership transfer `proposeOwnership()` must\n    ///  be called first by the current `owner` then `acceptOwnership()` must be\n    ///  called by the `newOwnerCandidate`\n    /// @notice `onlyOwner` Proposes to transfer control of the contract to a\n    ///  new owner\n    /// @param _newOwnerCandidate The address being proposed as the new owner\n    function proposeOwnership(address _newOwnerCandidate) public onlyOwner {\n        newOwnerCandidate = _newOwnerCandidate;\n        OwnershipRequested(msg.sender, newOwnerCandidate);\n    }\n\n    /// @notice Can only be called by the `newOwnerCandidate`, accepts the\n    ///  transfer of ownership\n    function acceptOwnership() public {\n        require(msg.sender == newOwnerCandidate);\n\n        address oldOwner = owner;\n        owner = newOwnerCandidate;\n        newOwnerCandidate = 0x0;\n\n        OwnershipTransferred(oldOwner, owner);\n    }\n\n    /// @dev In this 2nd option for ownership transfer `changeOwnership()` can\n    ///  be called and it will immediately assign ownership to the `newOwner`\n    /// @notice `owner` can step down and assign some other address to this role\n    /// @param _newOwner The address of the new owner\n    function changeOwnership(address _newOwner) public onlyOwner {\n        require(_newOwner != 0x0);\n\n        address oldOwner = owner;\n        owner = _newOwner;\n        newOwnerCandidate = 0x0;\n\n        OwnershipTransferred(oldOwner, owner);\n    }\n\n    /// @dev In this 3rd option for ownership transfer `removeOwnership()` can\n    ///  be called and it will immediately assign ownership to the 0x0 address;\n    ///  it requires a 0xdece be input as a parameter to prevent accidental use\n    /// @notice Decentralizes the contract, this operation cannot be undone\n    /// @param _dac `0xdac` has to be entered for this function to work\n    function removeOwnership(address _dac) public onlyOwner {\n        require(_dac == 0xdac);\n        owner = 0x0;\n        newOwnerCandidate = 0x0;\n        OwnershipRemoved();\n    }\n}\n\n\n\n/**\n * @title ERC20\n * @dev A standard interface for tokens.\n * @dev https://github.com/ethereum/EIPs/blob/master/EIPS/eip-20-token-standard.md\n */\ncontract ERC20 {\n\n    /// @dev Returns the total token supply\n    function totalSupply() public constant returns (uint256 supply);\n\n    /// @dev Returns the account balance of the account with address _owner\n    function balanceOf(address _owner) public constant returns (uint256 balance);\n\n    /// @dev Transfers _value number of tokens to address _to\n    function transfer(address _to, uint256 _value) public returns (bool success);\n\n    /// @dev Transfers _value number of tokens from address _from to address _to\n    function transferFrom(address _from, address _to, uint256 _value) public returns (bool success);\n\n    /// @dev Allows _spender to withdraw from the msg.sender's account up to the _value amount\n    function approve(address _spender, uint256 _value) public returns (bool success);\n\n    /// @dev Returns the amount which _spender is still allowed to withdraw from _owner\n    function allowance(address _owner, address _spender) public constant returns (uint256 remaining);\n\n    event Transfer(address indexed _from, address indexed _to, uint256 _value);\n    event Approval(address indexed _owner, address indexed _spender, uint256 _value);\n\n}\n\n\n/// @dev `Escapable` is a base level contract built off of the `Owned`\n///  contract; it creates an escape hatch function that can be called in an\n///  emergency that will allow designated addresses to send any ether or tokens\n///  held in the contract to an `escapeHatchDestination` as long as they were\n///  not blacklisted\ncontract Escapable is Owned {\n    address public escapeHatchCaller;\n    address public escapeHatchDestination;\n    mapping (address=>bool) private escapeBlacklist; // Token contract addresses\n\n    /// @notice The Constructor assigns the `escapeHatchDestination` and the\n    ///  `escapeHatchCaller`\n    /// @param _escapeHatchCaller The address of a trusted account or contract\n    ///  to call `escapeHatch()` to send the ether in this contract to the\n    ///  `escapeHatchDestination` it would be ideal that `escapeHatchCaller`\n    ///  cannot move funds out of `escapeHatchDestination`\n    /// @param _escapeHatchDestination The address of a safe location (usu a\n    ///  Multisig) to send the ether held in this contract; if a neutral address\n    ///  is required, the WHG Multisig is an option:\n    ///  0x8Ff920020c8AD673661c8117f2855C384758C572\n    function Escapable(address _escapeHatchCaller, address _escapeHatchDestination) public {\n        escapeHatchCaller = _escapeHatchCaller;\n        escapeHatchDestination = _escapeHatchDestination;\n    }\n\n    /// @dev The addresses preassigned as `escapeHatchCaller` or `owner`\n    ///  are the only addresses that can call a function with this modifier\n    modifier onlyEscapeHatchCallerOrOwner {\n        require ((msg.sender == escapeHatchCaller)||(msg.sender == owner));\n        _;\n    }\n\n    /// @notice Creates the blacklist of tokens that are not able to be taken\n    ///  out of the contract; can only be done at the deployment, and the logic\n    ///  to add to the blacklist will be in the constructor of a child contract\n    /// @param _token the token contract address that is to be blacklisted\n    function blacklistEscapeToken(address _token) internal {\n        escapeBlacklist[_token] = true;\n        EscapeHatchBlackistedToken(_token);\n    }\n\n    /// @notice Checks to see if `_token` is in the blacklist of tokens\n    /// @param _token the token address being queried\n    /// @return False if `_token` is in the blacklist and can't be taken out of\n    ///  the contract via the `escapeHatch()`\n    function isTokenEscapable(address _token) constant public returns (bool) {\n        return !escapeBlacklist[_token];\n    }\n\n    /// @notice The `escapeHatch()` should only be called as a last resort if a\n    /// security issue is uncovered or something unexpected happened\n    /// @param _token to transfer, use 0x0 for ether\n    function escapeHatch(address _token) public onlyEscapeHatchCallerOrOwner {\n        require(escapeBlacklist[_token]==false);\n\n        uint256 balance;\n\n        /// @dev Logic for ether\n        if (_token == 0x0) {\n            balance = this.balance;\n            escapeHatchDestination.transfer(balance);\n            EscapeHatchCalled(_token, balance);\n            return;\n        }\n        /// @dev Logic for tokens\n        ERC20 token = ERC20(_token);\n        balance = token.balanceOf(this);\n        require(token.transfer(escapeHatchDestination, balance));\n        EscapeHatchCalled(_token, balance);\n    }\n\n    /// @notice Changes the address assigned to call `escapeHatch()`\n    /// @param _newEscapeHatchCaller The address of a trusted account or\n    ///  contract to call `escapeHatch()` to send the value in this contract to\n    function changeHatchEscapeCaller(address _newEscapeHatchCaller) public onlyEscapeHatchCallerOrOwner {\n        escapeHatchCaller = _newEscapeHatchCaller;\n    }\n\n    event EscapeHatchBlackistedToken(address token);\n    event EscapeHatchCalled(address token, uint amount);\n}\n\n// Copyright (C) 2018 Alon Bukai This program is free software: you\n// can redistribute it and/or modify it under the terms of the GNU General\n// Public License as published by the Free Software Foundation, version.\n// This program is distributed in the hope that it will be useful,\n// but WITHOUT ANY WARRANTY; without even the implied warranty of MERCHANTABILITY\n// or FITNESS FOR A PARTICULAR PURPOSE. See the GNU General Public License for\n// more details. You should have received a copy of the GNU General Public\n// License along with this program. If not, see http://www.gnu.org/licenses/\n\n/// @notice `MultiSend` is a contract for sending multiple ETH/ERC20 Tokens to\n///  multiple addresses. In addition this contract can call multiple contracts\n///  with multiple amounts. There are also TightlyPacked functions which in\n///  some situations allow for gas savings. TightlyPacked is cheaper if you\n///  need to store input data and if amount is less than 12 bytes. Normal is\n///  cheaper if you don't need to store input data or if amounts are greater\n///  than 12 bytes. Supports deterministic deployment. As explained\n///  here: https://github.com/ethereum/EIPs/issues/777#issuecomment-356103528\ncontract MultiSend is Escapable {\n\n    /// @dev Hardcoded escapeHatchCaller\n    address CALLER = 0x839395e20bbB182fa440d08F850E6c7A8f6F0780;\n    /// @dev Hardcoded escapeHatchDestination\n    address DESTINATION = 0x8ff920020c8ad673661c8117f2855c384758c572;\n\n    event MultiTransfer(\n        address indexed _from,\n        uint indexed _value,\n        address _to,\n        uint _amount\n    );\n\n    event MultiCall(\n        address indexed _from,\n        uint indexed _value,\n        address _to,\n        uint _amount\n    );\n\n    event MultiERC20Transfer(\n        address indexed _from,\n        uint indexed _value,\n        address _to,\n        uint _amount,\n        ERC20 _token\n    );\n\n    /// @notice Constructor using Escapable and Hardcoded values\n    function MultiSend() Escapable(CALLER, DESTINATION) public {}\n\n    /// @notice Send to multiple addresses using a byte32 array which\n    ///  includes the address and the amount.\n    ///  Addresses and amounts are stored in a packed bytes32 array\n    ///  Address is stored in the 20 most significant bytes\n    ///  The address is retrieved by bitshifting 96 bits to the right\n    ///  Amount is stored in the 12 least significant bytes\n    ///  The amount is retrieved by taking the 96 least significant bytes\n    ///  and converting them into an unsigned integer\n    ///  Payable\n    /// @param _addressesAndAmounts Bitwise packed array of addresses\n    ///  and amounts\n    function multiTransferTightlyPacked(bytes32[] _addressesAndAmounts)\n    payable public returns(bool)\n    {\n        uint startBalance = this.balance;\n        for (uint i = 0; i < _addressesAndAmounts.length; i++) {\n            address to = address(_addressesAndAmounts[i] >> 96);\n            uint amount = uint(uint96(_addressesAndAmounts[i]));\n            _safeTransfer(to, amount);\n            MultiTransfer(msg.sender, msg.value, to, amount);\n        }\n        require(startBalance - msg.value == this.balance);\n        return true;\n    }\n\n    /// @notice Send to multiple addresses using two arrays which\n    ///  includes the address and the amount.\n    ///  Payable\n    /// @param _addresses Array of addresses to send to\n    /// @param _amounts Array of amounts to send\n    function multiTransfer(address[] _addresses, uint[] _amounts)\n    payable public returns(bool)\n    {\n        uint startBalance = this.balance;\n        for (uint i = 0; i < _addresses.length; i++) {\n            _safeTransfer(_addresses[i], _amounts[i]);\n            MultiTransfer(msg.sender, msg.value, _addresses[i], _amounts[i]);\n        }\n        require(startBalance - msg.value == this.balance);\n        return true;\n    }\n\n    /// @notice Call to multiple contracts using a byte32 array which\n    ///  includes the contract address and the amount.\n    ///  Addresses and amounts are stored in a packed bytes32 array.\n    ///  Address is stored in the 20 most significant bytes.\n    ///  The address is retrieved by bitshifting 96 bits to the right\n    ///  Amount is stored in the 12 least significant bytes.\n    ///  The amount is retrieved by taking the 96 least significant bytes\n    ///  and converting them into an unsigned integer.\n    ///  Payable\n    /// @param _addressesAndAmounts Bitwise packed array of contract\n    ///  addresses and amounts\n    function multiCallTightlyPacked(bytes32[] _addressesAndAmounts)\n    payable public returns(bool)\n    {\n        uint startBalance = this.balance;\n        for (uint i = 0; i < _addressesAndAmounts.length; i++) {\n            address to = address(_addressesAndAmounts[i] >> 96);\n            uint amount = uint(uint96(_addressesAndAmounts[i]));\n            _safeCall(to, amount);\n            MultiCall(msg.sender, msg.value, to, amount);\n        }\n        require(startBalance - msg.value == this.balance);\n        return true;\n    }\n\n    /// @notice Call to multiple contracts using two arrays which\n    ///  includes the contract address and the amount.\n    /// @param _addresses Array of contract addresses to call\n    /// @param _amounts Array of amounts to send\n    function multiCall(address[] _addresses, uint[] _amounts)\n    payable public returns(bool)\n    {\n        uint startBalance = this.balance;\n        for (uint i = 0; i < _addresses.length; i++) {\n            _safeCall(_addresses[i], _amounts[i]);\n            MultiCall(msg.sender, msg.value, _addresses[i], _amounts[i]);\n        }\n        require(startBalance - msg.value == this.balance);\n        return true;\n    }\n\n    /// @notice Send ERC20 tokens to multiple contracts\n    ///  using a byte32 array which includes the address and the amount.\n    ///  Addresses and amounts are stored in a packed bytes32 array.\n    ///  Address is stored in the 20 most significant bytes.\n    ///  The address is retrieved by bitshifting 96 bits to the right\n    ///  Amount is stored in the 12 least significant bytes.\n    ///  The amount is retrieved by taking the 96 least significant bytes\n    ///  and converting them into an unsigned integer.\n    /// @param _token The token to send\n    /// @param _addressesAndAmounts Bitwise packed array of addresses\n    ///  and token amounts\n    function multiERC20TransferTightlyPacked\n    (\n        ERC20 _token,\n        bytes32[] _addressesAndAmounts\n    ) public\n    {\n        for (uint i = 0; i < _addressesAndAmounts.length; i++) {\n            address to = address(_addressesAndAmounts[i] >> 96);\n            uint amount = uint(uint96(_addressesAndAmounts[i]));\n            _safeERC20Transfer(_token, to, amount);\n            MultiERC20Transfer(msg.sender, msg.value, to, amount, _token);\n        }\n    }\n\n    /// @notice Send ERC20 tokens to multiple contracts\n    ///  using two arrays which includes the address and the amount.\n    /// @param _token The token to send\n    /// @param _addresses Array of addresses to send to\n    /// @param _amounts Array of token amounts to send\n    function multiERC20Transfer(\n        ERC20 _token,\n        address[] _addresses,\n        uint[] _amounts\n    ) public\n    {\n        for (uint i = 0; i < _addresses.length; i++) {\n            _safeERC20Transfer(_token, _addresses[i], _amounts[i]);\n            MultiERC20Transfer(\n                msg.sender,\n                msg.value,\n                _addresses[i],\n                _amounts[i],\n                _token\n            );\n        }\n    }\n\n    /// @notice `_safeTransfer` is used internally when transfer funds safely.\n    function _safeTransfer(address _to, uint _amount) internal {\n        require(_to != 0);\n        _to.transfer(_amount);\n    }\n\n    /// @notice `_safeCall` is used internally when call a contract safely.\n    function _safeCall(address _to, uint _amount) internal {\n        require(_to != 0);\n        require(_to.call.value(_amount)());\n    }\n\n    /// @notice `_safeERC20Transfer` is used internally when\n    ///  transfer a quantity of ERC20 tokens.\n    function _safeERC20Transfer(ERC20 _token, address _to, uint _amount)\n    internal\n    {\n        require(_to != 0);\n        require(_token.transferFrom(msg.sender, _to, _amount));\n    }\n\n    /// @dev Default payable function to not allow sending to contract;\n    ///  remember this does not necesarily prevent the contract\n    ///  from accumulating funds.\n    function () public payable {\n        revert();\n    }\n}\n",
  "sourcePath": "/Users/danielhonerkamp/repos/staking-contract-internal/dutchStaking/staking-contract/contracts/multiSend.sol",
  "compiler": {
    "name": "solc",
    "version": "0.4.24+commit.e67f0147.Emscripten.clang"
  },
  "schemaVersion": "3.0.17",
  "updatedAt": "2019-11-08T15:04:57.394Z",
  "devdoc": {
    "methods": {
      "changeHatchEscapeCaller(address)": {
        "params": {
          "_newEscapeHatchCaller": "The address of a trusted account or  contract to call `escapeHatch()` to send the value in this contract to"
        }
      },
      "changeOwnership(address)": {
        "details": "In this 2nd option for ownership transfer `changeOwnership()` can  be called and it will immediately assign ownership to the `newOwner`",
        "params": {
          "_newOwner": "The address of the new owner"
        }
      },
      "escapeHatch(address)": {
        "params": {
          "_token": "to transfer, use 0x0 for ether"
        }
      },
      "isTokenEscapable(address)": {
        "params": {
          "_token": "the token address being queried"
        },
        "return": "False if `_token` is in the blacklist and can't be taken out of  the contract via the `escapeHatch()`"
      },
      "multiCall(address[],uint256[])": {
        "params": {
          "_addresses": "Array of contract addresses to call",
          "_amounts": "Array of amounts to send"
        }
      },
      "multiCallTightlyPacked(bytes32[])": {
        "params": {
          "_addressesAndAmounts": "Bitwise packed array of contract  addresses and amounts"
        }
      },
      "multiERC20Transfer(address,address[],uint256[])": {
        "params": {
          "_addresses": "Array of addresses to send to",
          "_amounts": "Array of token amounts to send",
          "_token": "The token to send"
        }
      },
      "multiERC20TransferTightlyPacked(address,bytes32[])": {
        "params": {
          "_addressesAndAmounts": "Bitwise packed array of addresses  and token amounts",
          "_token": "The token to send"
        }
      },
      "multiTransfer(address[],uint256[])": {
        "params": {
          "_addresses": "Array of addresses to send to",
          "_amounts": "Array of amounts to send"
        }
      },
      "multiTransferTightlyPacked(bytes32[])": {
        "params": {
          "_addressesAndAmounts": "Bitwise packed array of addresses  and amounts"
        }
      },
      "proposeOwnership(address)": {
        "details": "In this 1st option for ownership transfer `proposeOwnership()` must  be called first by the current `owner` then `acceptOwnership()` must be  called by the `newOwnerCandidate`",
        "params": {
          "_newOwnerCandidate": "The address being proposed as the new owner"
        }
      },
      "removeOwnership(address)": {
        "details": "In this 3rd option for ownership transfer `removeOwnership()` can  be called and it will immediately assign ownership to the 0x0 address;  it requires a 0xdece be input as a parameter to prevent accidental use",
        "params": {
          "_dac": "`0xdac` has to be entered for this function to work"
        }
      }
    }
  },
  "userdoc": {
    "methods": {
      "acceptOwnership()": {
        "notice": "Can only be called by the `newOwnerCandidate`, accepts the  transfer of ownership"
      },
      "changeHatchEscapeCaller(address)": {
        "notice": "Changes the address assigned to call `escapeHatch()`"
      },
      "changeOwnership(address)": {
        "notice": "`owner` can step down and assign some other address to this role"
      },
      "escapeHatch(address)": {
        "notice": "The `escapeHatch()` should only be called as a last resort if a security issue is uncovered or something unexpected happened"
      },
      "isTokenEscapable(address)": {
        "notice": "Checks to see if `_token` is in the blacklist of tokens"
      },
      "multiCall(address[],uint256[])": {
        "notice": "Call to multiple contracts using two arrays which  includes the contract address and the amount."
      },
      "multiCallTightlyPacked(bytes32[])": {
        "notice": "Call to multiple contracts using a byte32 array which  includes the contract address and the amount.  Addresses and amounts are stored in a packed bytes32 array.  Address is stored in the 20 most significant bytes.  The address is retrieved by bitshifting 96 bits to the right  Amount is stored in the 12 least significant bytes.  The amount is retrieved by taking the 96 least significant bytes  and converting them into an unsigned integer.  Payable"
      },
      "multiERC20Transfer(address,address[],uint256[])": {
        "notice": "Send ERC20 tokens to multiple contracts  using two arrays which includes the address and the amount."
      },
      "multiERC20TransferTightlyPacked(address,bytes32[])": {
        "notice": "Send ERC20 tokens to multiple contracts  using a byte32 array which includes the address and the amount.  Addresses and amounts are stored in a packed bytes32 array.  Address is stored in the 20 most significant bytes.  The address is retrieved by bitshifting 96 bits to the right  Amount is stored in the 12 least significant bytes.  The amount is retrieved by taking the 96 least significant bytes  and converting them into an unsigned integer."
      },
      "multiTransfer(address[],uint256[])": {
        "notice": "Send to multiple addresses using two arrays which  includes the address and the amount.  Payable"
      },
      "multiTransferTightlyPacked(bytes32[])": {
        "notice": "Send to multiple addresses using a byte32 array which  includes the address and the amount.  Addresses and amounts are stored in a packed bytes32 array  Address is stored in the 20 most significant bytes  The address is retrieved by bitshifting 96 bits to the right  Amount is stored in the 12 least significant bytes  The amount is retrieved by taking the 96 least significant bytes  and converting them into an unsigned integer  Payable"
      },
      "proposeOwnership(address)": {
        "notice": "`onlyOwner` Proposes to transfer control of the contract to a  new owner"
      },
      "removeOwnership(address)": {
        "notice": "Decentralizes the contract, this operation cannot be undone"
      }
    }
  }
}